{
  "contractName": "SurveyMapping",
  "abi": [
    {
      "anonymous": false,
      "inputs": [
        {
          "indexed": false,
          "name": "_surveyId",
          "type": "string"
        },
        {
          "indexed": false,
          "name": "_hash",
          "type": "string"
        }
      ],
      "name": "LogSurveyRegistered",
      "type": "event"
    },
    {
      "constant": false,
      "inputs": [
        {
          "name": "_surveyId",
          "type": "string"
        },
        {
          "name": "_hash",
          "type": "string"
        }
      ],
      "name": "RegisterSurvey",
      "outputs": [],
      "payable": false,
      "stateMutability": "nonpayable",
      "type": "function"
    },
    {
      "constant": true,
      "inputs": [
        {
          "name": "_surveyId",
          "type": "string"
        }
      ],
      "name": "ReturnHash",
      "outputs": [
        {
          "name": "_hash",
          "type": "string"
        }
      ],
      "payable": false,
      "stateMutability": "view",
      "type": "function"
    }
  ],
  "bytecode": "0x608060405234801561001057600080fd5b5061065c806100206000396000f3fe60806040526004361061004c576000357c0100000000000000000000000000000000000000000000000000000000900463ffffffff1680631f4b883214610051578063243cf04f14610192575b600080fd5b34801561005d57600080fd5b506101176004803603602081101561007457600080fd5b810190808035906020019064010000000081111561009157600080fd5b8201836020820111156100a357600080fd5b803590602001918460018302840111640100000000831117156100c557600080fd5b91908080601f016020809104026020016040519081016040528093929190818152602001838380828437600081840152601f19601f8201169050808301925050505050505091929192905050506102f1565b6040518080602001828103825283818151815260200191508051906020019080838360005b8381101561015757808201518184015260208101905061013c565b50505050905090810190601f1680156101845780820380516001836020036101000a031916815260200191505b509250505060405180910390f35b34801561019e57600080fd5b506102ef600480360360408110156101b557600080fd5b81019080803590602001906401000000008111156101d257600080fd5b8201836020820111156101e457600080fd5b8035906020019184600183028401116401000000008311171561020657600080fd5b91908080601f016020809104026020016040519081016040528093929190818152602001838380828437600081840152601f19601f8201169050808301925050505050505091929192908035906020019064010000000081111561026957600080fd5b82018360208201111561027b57600080fd5b8035906020019184600183028401116401000000008311171561029d57600080fd5b91908080601f016020809104026020016040519081016040528093929190818152602001838380828437600081840152601f19601f8201169050808301925050505050505091929192905050506103fe565b005b60606000826040518082805190602001908083835b60208310151561032b5780518252602082019150602081019050602083039250610306565b6001836020036101000a03801982511681845116808217855250505050505090500191505090815260200160405180910390208054600181600116156101000203166002900480601f0160208091040260200160405190810160405280929190818152602001828054600181600116156101000203166002900480156103f25780601f106103c7576101008083540402835291602001916103f2565b820191906000526020600020905b8154815290600101906020018083116103d557829003601f168201915b50505050509050919050565b806000836040518082805190602001908083835b6020831015156104375780518252602082019150602081019050602083039250610412565b6001836020036101000a0380198251168184511680821785525050505050509050019150509081526020016040518091039020908051906020019061047d92919061058b565b507f0c5b8a26f6ea94909bd7892b50292ad87d62e5444bab769b099da75d2121050e8282604051808060200180602001838103835285818151815260200191508051906020019080838360005b838110156104e55780820151818401526020810190506104ca565b50505050905090810190601f1680156105125780820380516001836020036101000a031916815260200191505b50838103825284818151815260200191508051906020019080838360005b8381101561054b578082015181840152602081019050610530565b50505050905090810190601f1680156105785780820380516001836020036101000a031916815260200191505b5094505050505060405180910390a15050565b828054600181600116156101000203166002900490600052602060002090601f016020900481019282601f106105cc57805160ff19168380011785556105fa565b828001600101855582156105fa579182015b828111156105f95782518255916020019190600101906105de565b5b509050610607919061060b565b5090565b61062d91905b80821115610629576000816000905550600101610611565b5090565b9056fea165627a7a72305820a05d636981f3073d42732ef426dfbcff65d18b44e313c5b1b71e1531c421ac5b0029",
  "source": "pragma solidity >=0.4.21 <0.6.0;\n\n/**\n * @title Survey Mapping\n *\n * @dev Basic implementation of a mapping-styled smart contract to keep track of surveys against their outputed hash values\n * The implementation has 2 basic methods - RegisterSurvey, ReturnHash - and it also implements Ownable.sol\n */\ncontract SurveyMapping {\n\n    mapping(string => string) private surveys;\n\n    event LogSurveyRegistered(string _surveyId, string _hash);\n\n    /**\n     * @dev Adds new hash value entry to survey ID mapping\n     * @param _hash The hash output of the survey\n     * @param _surveyId The survey ID\n     *\n     * A typical survey ID might be something like: SV_9soLp9xtDjAKP53\n     */\n    function RegisterSurvey(string memory _surveyId, string memory _hash) public {\n        surveys[_surveyId] = _hash;\n        emit LogSurveyRegistered(_surveyId, _hash);\n    }\n\n    /**\n     * @dev Returns the hash value of a specific survey, by ID\n     * @param _surveyId The survey ID\n     */   \n    function ReturnHash(string memory _surveyId) public view returns (string memory _hash) {\n        return surveys[_surveyId];\n    }\n\n}\n",
  "sourcePath": "/Users/guilhermecampos/workers-rights/smart-contracts/contracts/SurveyMapping.sol",
  "compiler": {
    "name": "solc",
    "version": "0.5.0+commit.1d4f565a.Emscripten.clang"
  },
  "schemaVersion": "3.0.1",
  "updatedAt": "2019-02-18T16:58:52.969Z",
  "devdoc": {
    "details": "Basic implementation of a mapping-styled smart contract to keep track of surveys against their outputed hash values The implementation has 2 basic methods - RegisterSurvey, ReturnHash - and it also implements Ownable.sol",
    "methods": {
      "RegisterSurvey(string,string)": {
        "details": "Adds new hash value entry to survey ID mapping",
        "params": {
          "_hash": "The hash output of the survey",
          "_surveyId": "The survey ID     * A typical survey ID might be something like: SV_9soLp9xtDjAKP53"
        }
      },
      "ReturnHash(string)": {
        "details": "Returns the hash value of a specific survey, by ID",
        "params": {
          "_surveyId": "The survey ID"
        }
      }
    },
    "title": "Survey Mapping"
  },
  "userdoc": {
    "methods": {}
  }
}